{
  "contractName": "IdentityVerification",
  "abi": [
    {
      "inputs": [],
      "stateMutability": "nonpayable",
      "type": "constructor"
    },
    {
      "anonymous": false,
      "inputs": [
        {
          "indexed": true,
          "internalType": "address",
          "name": "user",
          "type": "address"
        },
        {
          "indexed": true,
          "internalType": "address",
          "name": "verifier",
          "type": "address"
        }
      ],
      "name": "VerificationApproved",
      "type": "event"
    },
    {
      "anonymous": false,
      "inputs": [
        {
          "indexed": true,
          "internalType": "address",
          "name": "user",
          "type": "address"
        },
        {
          "indexed": false,
          "internalType": "string",
          "name": "name",
          "type": "string"
        },
        {
          "indexed": false,
          "internalType": "string",
          "name": "country",
          "type": "string"
        }
      ],
      "name": "VerificationRequest",
      "type": "event"
    },
    {
      "inputs": [
        {
          "internalType": "address",
          "name": "_verifier",
          "type": "address"
        }
      ],
      "name": "addVerifier",
      "outputs": [],
      "stateMutability": "nonpayable",
      "type": "function"
    },
    {
      "inputs": [
        {
          "internalType": "string",
          "name": "_name",
          "type": "string"
        },
        {
          "internalType": "string",
          "name": "_country",
          "type": "string"
        }
      ],
      "name": "requestVerification",
      "outputs": [],
      "stateMutability": "nonpayable",
      "type": "function"
    },
    {
      "inputs": [
        {
          "internalType": "address",
          "name": "_user",
          "type": "address"
        }
      ],
      "name": "approveVerification",
      "outputs": [],
      "stateMutability": "nonpayable",
      "type": "function"
    },
    {
      "inputs": [
        {
          "internalType": "address",
          "name": "_user",
          "type": "address"
        }
      ],
      "name": "isUserVerified",
      "outputs": [
        {
          "internalType": "bool",
          "name": "",
          "type": "bool"
        }
      ],
      "stateMutability": "view",
      "type": "function",
      "constant": true
    },
    {
      "inputs": [
        {
          "internalType": "address",
          "name": "_user",
          "type": "address"
        }
      ],
      "name": "getIdentity",
      "outputs": [
        {
          "internalType": "string",
          "name": "",
          "type": "string"
        },
        {
          "internalType": "string",
          "name": "",
          "type": "string"
        },
        {
          "internalType": "bool",
          "name": "",
          "type": "bool"
        }
      ],
      "stateMutability": "view",
      "type": "function",
      "constant": true
    }
  ],
  "bytecode": "0x608060405234801561001057600080fd5b50336000806101000a81548173ffffffffffffffffffffffffffffffffffffffff021916908373ffffffffffffffffffffffffffffffffffffffff160217905550610e52806100606000396000f3fe608060405234801561001057600080fd5b50600436106100575760003560e01c80632fea7b811461005c5780633f7fb53b1461008e5780634de2bfbf146100aa5780639000b3d6146100c6578063ace417e0146100e2575b600080fd5b61007660048036038101906100719190610841565b610112565b60405161008593929190610a2f565b60405180910390f35b6100a860048036038101906100a39190610841565b6102c0565b005b6100c460048036038101906100bf919061086e565b610469565b005b6100e060048036038101906100db9190610841565b6105d8565b005b6100fc60048036038101906100f79190610841565b6106c0565b60405161010991906109dd565b60405180910390f35b606080600080600260008673ffffffffffffffffffffffffffffffffffffffff1673ffffffffffffffffffffffffffffffffffffffff16815260200190815260200160002060405180606001604052908160008201805461017290610c06565b80601f016020809104026020016040519081016040528092919081815260200182805461019e90610c06565b80156101eb5780601f106101c0576101008083540402835291602001916101eb565b820191906000526020600020905b8154815290600101906020018083116101ce57829003601f168201915b5050505050815260200160018201805461020490610c06565b80601f016020809104026020016040519081016040528092919081815260200182805461023090610c06565b801561027d5780601f106102525761010080835404028352916020019161027d565b820191906000526020600020905b81548152906001019060200180831161026057829003601f168201915b505050505081526020016002820160009054906101000a900460ff1615151515815250509050806000015181602001518260400151935093509350509193909250565b60011515600160003373ffffffffffffffffffffffffffffffffffffffff1673ffffffffffffffffffffffffffffffffffffffff16815260200190815260200160002060009054906101000a900460ff16151514610353576040517f08c379a000000000000000000000000000000000000000000000000000000000815260040161034a90610af4565b60405180910390fd5b6000600260008373ffffffffffffffffffffffffffffffffffffffff1673ffffffffffffffffffffffffffffffffffffffff1681526020019081526020016000209050600015158160020160009054906101000a900460ff161515146103ee576040517f08c379a00000000000000000000000000000000000000000000000000000000081526004016103e590610ab4565b60405180910390fd5b60018160020160006101000a81548160ff0219169083151502179055503373ffffffffffffffffffffffffffffffffffffffff168273ffffffffffffffffffffffffffffffffffffffff167f61fde3e0fc0d3d3a622e35d2009c0a7566e87458cd0754a89107e8c99d897f3960405160405180910390a35050565b60008251116104ad576040517f08c379a00000000000000000000000000000000000000000000000000000000081526004016104a490610a94565b60405180910390fd5b60008151116104f1576040517f08c379a00000000000000000000000000000000000000000000000000000000081526004016104e890610ad4565b60405180910390fd5b6000600260003373ffffffffffffffffffffffffffffffffffffffff1673ffffffffffffffffffffffffffffffffffffffff16815260200190815260200160002090508281600001908051906020019061054c929190610719565b5081816001019080519060200190610565929190610719565b5060008160020160006101000a81548160ff0219169083151502179055503373ffffffffffffffffffffffffffffffffffffffff167f47c27241e91b230548ed31a3c44dda3079b1fc1714e0e448077e47571d48540584846040516105cb9291906109f8565b60405180910390a2505050565b60008054906101000a900473ffffffffffffffffffffffffffffffffffffffff1673ffffffffffffffffffffffffffffffffffffffff163373ffffffffffffffffffffffffffffffffffffffff1614610666576040517f08c379a000000000000000000000000000000000000000000000000000000000815260040161065d90610a74565b60405180910390fd5b60018060008373ffffffffffffffffffffffffffffffffffffffff1673ffffffffffffffffffffffffffffffffffffffff16815260200190815260200160002060006101000a81548160ff02191690831515021790555050565b6000600260008373ffffffffffffffffffffffffffffffffffffffff1673ffffffffffffffffffffffffffffffffffffffff16815260200190815260200160002060020160009054906101000a900460ff169050919050565b82805461072590610c06565b90600052602060002090601f016020900481019282610747576000855561078e565b82601f1061076057805160ff191683800117855561078e565b8280016001018555821561078e579182015b8281111561078d578251825591602001919060010190610772565b5b50905061079b919061079f565b5090565b5b808211156107b85760008160009055506001016107a0565b5090565b60006107cf6107ca84610b39565b610b14565b9050828152602081018484840111156107eb576107ea610ccc565b5b6107f6848285610bc4565b509392505050565b60008135905061080d81610e05565b92915050565b600082601f83011261082857610827610cc7565b5b81356108388482602086016107bc565b91505092915050565b60006020828403121561085757610856610cd6565b5b6000610865848285016107fe565b91505092915050565b6000806040838503121561088557610884610cd6565b5b600083013567ffffffffffffffff8111156108a3576108a2610cd1565b5b6108af85828601610813565b925050602083013567ffffffffffffffff8111156108d0576108cf610cd1565b5b6108dc85828601610813565b9150509250929050565b6108ef81610b98565b82525050565b600061090082610b6a565b61090a8185610b75565b935061091a818560208601610bd3565b61092381610cdb565b840191505092915050565b600061093b602283610b75565b915061094682610cec565b604082019050919050565b600061095e601183610b75565b915061096982610d3b565b602082019050919050565b6000610981601983610b75565b915061098c82610d64565b602082019050919050565b60006109a4601483610b75565b91506109af82610d8d565b602082019050919050565b60006109c7602983610b75565b91506109d282610db6565b604082019050919050565b60006020820190506109f260008301846108e6565b92915050565b60006040820190508181036000830152610a1281856108f5565b90508181036020830152610a2681846108f5565b90509392505050565b60006060820190508181036000830152610a4981866108f5565b90508181036020830152610a5d81856108f5565b9050610a6c60408301846108e6565b949350505050565b60006020820190508181036000830152610a8d8161092e565b9050919050565b60006020820190508181036000830152610aad81610951565b9050919050565b60006020820190508181036000830152610acd81610974565b9050919050565b60006020820190508181036000830152610aed81610997565b9050919050565b60006020820190508181036000830152610b0d816109ba565b9050919050565b6000610b1e610b2f565b9050610b2a8282610c38565b919050565b6000604051905090565b600067ffffffffffffffff821115610b5457610b53610c98565b5b610b5d82610cdb565b9050602081019050919050565b600081519050919050565b600082825260208201905092915050565b6000610b9182610ba4565b9050919050565b60008115159050919050565b600073ffffffffffffffffffffffffffffffffffffffff82169050919050565b82818337600083830152505050565b60005b83811015610bf1578082015181840152602081019050610bd6565b83811115610c00576000848401525b50505050565b60006002820490506001821680610c1e57607f821691505b60208210811415610c3257610c31610c69565b5b50919050565b610c4182610cdb565b810181811067ffffffffffffffff82111715610c6057610c5f610c98565b5b80604052505050565b7f4e487b7100000000000000000000000000000000000000000000000000000000600052602260045260246000fd5b7f4e487b7100000000000000000000000000000000000000000000000000000000600052604160045260246000fd5b600080fd5b600080fd5b600080fd5b600080fd5b6000601f19601f8301169050919050565b7f4f6e6c7920746865206f776e65722063616e206164642061207665726966696560008201527f722e000000000000000000000000000000000000000000000000000000000000602082015250565b7f4e616d652069732072657175697265642e000000000000000000000000000000600082015250565b7f5573657220697320616c72656164792076657269666965642e00000000000000600082015250565b7f436f756e7472792069732072657175697265642e000000000000000000000000600082015250565b7f4f6e6c7920612076657269666965722063616e20617070726f7665207665726960008201527f6669636174696f6e2e0000000000000000000000000000000000000000000000602082015250565b610e0e81610b86565b8114610e1957600080fd5b5056fea2646970667358221220900a199cff25170b9eac210c66c5896e624d04f73c13913ddc29da435d0816af64736f6c63430008060033",
  "immutableReferences": {},
  "source": "// SPDX-License-Identifier: MIT\npragma solidity ^0.8.0;\n\ncontract IdentityVerification {\n    struct Identity {\n        string name;\n        string country;\n        bool isVerified;\n    }\n\n    address private owner;\n    mapping(address => bool) private verifiers;\n    mapping(address => Identity) private identities;\n\n    event VerificationRequest(\n        address indexed user,\n        string name,\n        string country\n    );\n    event VerificationApproved(address indexed user, address indexed verifier);\n\n    constructor() {\n        owner = msg.sender; // The sender is the owner\n    }\n\n    modifier onlyOwner() {\n        require(msg.sender == owner, \"Only the owner can add a verifier.\");\n        _;\n    }\n\n    modifier onlyVerifier() {\n        require(\n            verifiers[msg.sender] == true,\n            \"Only a verifier can approve verification.\"\n        );\n        _;\n    }\n\n    function addVerifier(address _verifier) public onlyOwner {\n        verifiers[_verifier] = true;\n    }\n\n    function requestVerification(\n        string memory _name,\n        string memory _country\n    ) public {\n        require(bytes(_name).length > 0, \"Name is required.\");\n        require(bytes(_country).length > 0, \"Country is required.\");\n\n        Identity storage user = identities[msg.sender];\n        user.name = _name;\n        user.country = _country;\n        user.isVerified = false;\n        emit VerificationRequest(msg.sender, _name, _country);\n    }\n\n    function approveVerification(address _user) public onlyVerifier {\n        Identity storage user = identities[_user];\n        require(user.isVerified == false, \"User is already verified.\");\n        user.isVerified = true;\n        emit VerificationApproved(_user, msg.sender);\n    }\n\n    function isUserVerified(address _user) public view returns (bool) {\n        return identities[_user].isVerified;\n    }\n\n    function getIdentity(\n        address _user\n    ) public view returns (string memory, string memory, bool) {\n        Identity memory user = identities[_user];\n        return (user.name, user.country, user.isVerified);\n    }\n}\n",
  "sourcePath": "/Users/buchetinagapadmini/TrustEZ/TrustEZ/contracts/Identity.sol",
  "compiler": {
    "name": "solc",
    "version": "0.8.6+commit.11564f7e.Emscripten.clang"
  },
  "schemaVersion": "3.4.14",
  "updatedAt": "2023-07-30T19:11:51.286Z",
  "networkType": "ethereum",
  "devdoc": {
    "kind": "dev",
    "methods": {},
    "version": 1
  },
  "userdoc": {
    "kind": "user",
    "methods": {},
    "version": 1
  }
}